:020000040000FA
:020000009F2837
:0800080005280B12E12120087C
:10001000083C031D10282208553C031D102869299F
:100020008B100B1609008713071D172813282008AB
:10003000083C031DC1285530A2003120FF30850047
:10004000212887132108083C0319BA29FB308500B1
:100050007F308600F321FF308500FF308600F321DA
:1000600021280730A3000730A400483084003E2038
:100070008403A40B3728A30B33284C2800088403DF
:100080000002031C4A280008840A80060006800635
:1000900084038000840A080041308400A401A40A7B
:1000A0005728840A2408083C031908004F28000830
:1000B000003C031981280008013C0319842800082A
:1000C000023C031987280008033C03198A2800080A
:1000D000043C03198D280008053C031990280008EA
:1000E000063C031993280008073C031996280008CA
:1000F000083C031999280008093C03199C280008AA
:100100005728803080005128F33080005128483033
:100110008000512860308000512833308000512801
:10012000243080005128043080005128F0308000B5
:1001300051280030800051282030800051280313BE
:100140008316013086000F30870006309F00013093
:1001500085008B170B168B108312FF308600FF3043
:100160008500FF308700A001A101A201A301A40125
:10017000A401051CBC28B92880308600FD3085000C
:10018000F321FF3087000712071CE728871CEA28A5
:10019000071DED2807168712071CF028871CF32877
:1001A000071DF62887160713071CF928871CFC284B
:1001B000071DFF2807178713071CC128871CE42881
:1001C000071D02298717C1280030C0000829013007
:1001D000C00008290230C00008290330C0000829E7
:1001E0000430C00008290530C00008290630C000CE
:1001F00008210730C00008290830C000082909304C
:10020000C00008292008083C03191728F321C12839
:100210002008083C0319C128A00A2008013C031942
:100220002E292008023C031934292008033C031915
:100230003A292008043C031940292008053C0319E9
:1002400046292008063C03194C292008073C0319BD
:1002500052292008083C0319582962294008C10086
:10026000F3308600F32162294008C200483086003E
:10027000F32162294008C30060308600F32162291F
:100280004008C40033308600F32162294008C500CD
:1002900024308600F32162294008C600043086001D
:1002A000F32162294008C700F0308600F32162295B
:1002B0004008C80000308600F32113282030860053
:1002C000F321C12807080739073C031D6229F321E0
:1002D000C128A10A2108013C03198A292108023CEE
:1002E000031990292108033C031996292108043C8D
:1002F00003199C292108053C0319A2292108063C61
:100300000319A8292108073C0319AE292108083C34
:100310000319B42941088600F5218B100B1609003A
:1003200042088600F5218B100B1609004308860051
:10033000F5218B100B16090044088600F5218B105F
:100340000B16090045088600F5218B100B160900D5
:1003500046088600F5218B100B1609004708860019
:10036000F5218B100B16090048088600F5218B102B
:100370000B120900F321F321F3219F280000000054
:10038000000000000000000008000000A430D12997
:1003900000004030D1291F30D12900000E30D12972
:1003A00005308C008C0BD2290800C830E429643059
:1003B000E4293230E4291430E4290A30E4290530F4
:1003C000E4290230E42901308D00F9308C0000006E
:1003D0008C0BE7298D0BE5290800C830F82964301B
:1003E000F8293230F8291430F8290A30F829053074
:1003F0008E0064308D00F9308C0000008C0BFD29DC
:0A0400008D0BFB298E0BF929080073
:02400E00713F00
:00000001FF
